:03000000020006F5
:03005F0002000399
:0300030002006296
:20006200750801750902750A04750B08750C10750D20750E40750F8075900075A00075806C
:20008200FF75B000D2A0904E20E4F5F01201197F008FF005F07401800225E0D5F0FBFE42E6
:2000A200A09003E8E4F5F0C007C006120119D006EEF452A09003E8E4F5F0120119D007EFC1
:2000C2002408F98710758200C007120156D0070FBF080040BC751002758201120156751025
:2000E200047582011201567510087582011201567510107582011201567510207582011206
:20010200015675104075820112015675108075820112015602009185821185831285F013AD
:20012200F5147B00BB0A00502A780079007A007F00C3E89511E99512EA9513EF95145010A5
:200142000008B8000909B900050ABA00E40F80E10B80D122AF82C374039FE433FE7024EFD5
:200162002F900167738006800A800E8012E51062808010E5106290800AE51062A08004E57B
:200182001062B09003E8E4F5F0C007C006120119D006D007EE7024EF2F90019F7380068048
:2001A2000A800E8012E51062808010E5106290800AE51062A08004E51062B09003E8E4F565
:0401C200F00201192D
:06003500E478FFF6D8FD9F
:200013007900E94400601B7A009001CA780175A000E493F2A308B8000205A0D9F4DAF275C8
:02003300A0FF2C
:20003B007800E84400600A790175A000E4F309D8FC7800E84400600C7900900001E4F0A3C3
:04005B00D8FCD9FAFA
:0D0006007581141201C6E58260030200033B
:0401C600758200221C
:00000001FF
