:03000000020006F5
:03005F0002000399
:0300030002006296
:1000620075900075A0007580FF75B000D2A0904E0B
:1000720020E4F5F01200847508807582011200C137
:1000820080F585820985830A85F00BF50C7B00BB20
:100092000A00502A780079007A007F00C3E89509A7
:1000A200E9950AEA950BEF950C50100008B8000983
:1000B20009B900050ABA00E40F80E10B80D122E5FC
:1000C20082FF24FC403CEF2F9000CE738006800A12
:1000D200800E801EE50862808028E50862908022FA
:1000E2008508F005F07401800225E0D5F0FB62A0DE
:1000F20080108508F005F07401800225E0D5F0FB40
:0B01020062B09003E8E4F5F002008416
:06003500E478FFF6D8FD9F
:100013007900E94400601B7A00900111780175A012
:1000230000E493F2A308B8000205A0D9F4DAF2754C
:02003300A0FF2C
:10003B007800E84400600A790175A000E4F309D860
:10004B00FC7800E84400600C7900900001E4F0A318
:04005B00D8FCD9FAFA
:0D00060075810C12010DE5826003020003FC
:04010D0075820022D5
:00000001FF
