:03000000020006F5
:03005F0002000399
:0300030002006296
:20006200750880E4F509F50A750801F509F50A750DE8750E03F50FF510AA0DAB0EAE0FAF50
:2000820010150D74FFB50D0C150EB50E07150FB50F021510EA4B4E4F70DFF508F509F50AD4
:2000A200750DE8750E03F50FF510AA0DAB0EAE0FAF10150D74FFB50D0C150EB50E07150FE5
:0C00C200B50F021510EA4B4E4F70DF2204
:06003500E478FFF6D8FD9F
:200013007900E94400601B7A009000D2780175A000E493F2A308B8000205A0D9F4DAF275C1
:02003300A0FF2C
:20003B007800E84400600A790175A000E4F309D8FC7800E84400600C7900900001E4F0A3C3
:04005B00D8FCD9FAFA
:0D0006007581101200CEE582600302000338
:0400CE007582002215
:00000001FF
